:100000000C9431010C9462010C9462010C94620115
:100010000C9462010C9462010C9462010C946201D4
:100020000C9462010C9462010C9462010C946201C4
:100030000C9462010C9462010C9462010C946201B4
:100040000C9462010C94FB070C9462010C94620105
:100050000C9462010C9462010C9462010C94C7062A
:100060000C9462010C943B070C9411070C946201F0
:100070000C9462010C9462010C9462010C94620174
:100080000C94CD070C9462010C9462010C946201F3
:100090000C9462010C9462010C9462010C94620154
:1000A0000C9462010C9462010C949F070C94620101
:1000B0000C9462010C9462010C9462010C9471071F
:1000C0000C9462010C9462010C9462010C94620124
:1000D0000C9462010C9462010C9462010C94620114
:1000E0000C9462010C942D030C946A020C943B0254
:1000F0000C941D020C943D0B0C940B030C944E02BB
:100100000C94CF020C9465030C946E020C94BD0405
:100110000C94B2030C9418020C94FC020C940C0680
:100120000C942F020C9460020C9444020C941F0354
:100130000C94BE040C9452020C943E020C943302B4
:100140000C9464020C9456020C9437020C945C02DA
:100150000C9429080C94480200000A0B02090C0DAB
:100160000E0807030401000000000000000000006A
:10017000000000000000000000000000000000007F
:10018000000000001211100000000000000000003C
:10019000000000000000000000000000000000005F
:1001A0002200250028002B002E003100340002011F
:1001B0000000050108010B010000210024002700B8
:1001C0002A002D0030003300010100000401070166
:1001D0000A010505050507050808080802020202CC
:1001E0000A0A0808040404040101010101010101D3
:1001F0000303030303030303040707070C0C0C0C9E
:100200000C0C0C0C02020202060606060606060686
:100210000B0B0B0B0B0B0B0B010210202008081013
:100220002040102040800201020108040201010266
:10023000040810204080804020100804020180043F
:10024000020180402010080402010804020101029A
:100250000408102040800102040810204080290872
:100260003D0B11241FBECFEFD1E2DEBFCDBF00E0BA
:100270000CBF12E0A0E0B2E0E2EDFBE100E00BBF5A
:1002800002C007900D92AC3EB107D9F724E0ACEE66
:10029000B2E001C01D92AC34B207E1F711E0C0E357
:1002A000D1E000E006C021970109802FFE010E94E5
:1002B000B00BCF32D10780E00807A9F70E94C3082E
:1002C0000C94D70D0C94000090E0FC01E85EFD4F0B
:1002D00024918E529E4FFC018491882399F090E0E6
:1002E000880F991FFC01E854FE4FA591B491FC01C1
:1002F000E256FE4F859194918FB7F894EC91E22BE2
:10030000EC938FBF08958F929F92AF92BF92FF920E
:100310000F931F93CF93DF93F0902D042FE22F15AF
:1003200008F44CC020912F0408E512E0021B1109CB
:1003300027FD1395000F111F000F111F20912E0490
:10034000C8E8D0E0C21BD10927FDD395CC0FDD1F33
:10035000CC0FDD1F4E010D2E000CAA08BB08980122
:10036000012E000C440B550B281939094A095B0969
:10037000DC010E946B0B24EB30E040E050E00E9477
:10038000410B820E931EA41EB51E8C169D062CF0EA
:10039000E801801691060CF4E4012297CC0FDD1FD2
:1003A0002FB7F8948F2D90E0FC01EE0FFF1FE80FA0
:1003B000F91FEA56FC4FD283C1832FBFDF91CF9143
:1003C0001F910F91FF90BF90AF909F908F900895D5
:1003D000282F30E0F901E85AFE4F9491F901E85EC8
:1003E000FD4F44912E523E4FF9012491222309F4EE
:1003F00035C0992311F191509231F8F4E92FF0E0D2
:100400008827EA5FFD4F8F4F0C94B00B37023B02F9
:1004100018022F0233021D023E02440248024E021D
:10042000520256025C0260021D0264026A026E02FF
:10043000809180008F7780938000E22FF0E0EE0FB4
:10044000FF1FE256FE4FA591B4918FB7F894EC913F
:10045000611148C040954E234C938FBF0895809101
:1004600080008F7DE8CF80918000877FE4CF84B5C6
:100470008F7784BDE2CF84B58F7DFBCF8091B000B4
:100480008F778093B000D9CF8091B0008F7DF9CF66
:10049000809190008F7780939000CFCF80919000D3
:1004A0008F7DF9CF80919000877FF5CF8091A0005C
:1004B0008F778093A000C1CF8091A0008F7DF9CF6E
:1004C0008091A000877FF5CF809120018F77809366
:1004D0002001B3CF809120018F7DF9CF8091200141
:1004E000877FF5CF4E2BB8CF3FB7F8948091F502B8
:1004F0009091F602A091F702B091F80226B5A89B60
:1005000005C02F3F19F00196A11DB11D3FBFBA2FA5
:10051000A92F982F8827BC01CD01620F711D811D65
:10052000911D42E0660F771F881F991F4A95D1F7EA
:1005300008958F929F92AF92BF92CF92DF92EF92E7
:10054000FF920E9474024B015C0184EFC82EDD24EF
:10055000D394E12CF12C0E947402681979098A095C
:100560009B09683E734081059105A8F321E0C21AFA
:10057000D108E108F10888EE880E83E0981EA11CDE
:10058000B11CC114D104E104F10429F7FF90EF90EC
:10059000DF90CF90BF90AF909F908F900895AF92D3
:1005A000BF92CF92DF92EF92FF920F931F93CF9360
:1005B000DF936C017B018B01040F151FEB015E01C2
:1005C000AE18BF08C017D10759F06991D601ED9157
:1005D000FC910190F081E02DC6011995892B79F7E6
:1005E000C501DF91CF911F910F91FF90EF90DF90A8
:1005F000CF90BF90AF900895FC01538D448D252F6F
:1006000030E0842F90E0821B930B541710F0CF96AC
:10061000089501970895FC01918D828D981761F0DE
:10062000A28DAE0FBF2FB11D5D968C91928D9F5FF5
:100630009F73928F90E008958FEF9FEF0895FC01D4
:10064000918D828D981731F0828DE80FF11D858D87
:1006500090E008958FEF9FEF0895FC01918D228D1A
:10066000892F90E0805C9F4F821B91098F7399279F
:10067000089589EF92E00E942D0321E0892B09F46F
:1006800020E0822F0895FC01A48DA80FB92FB11D81
:10069000A35ABF4F2C91848D90E001968F739927B8
:1006A000848FA689B7892C93A089B1898C91837096
:1006B00080648C93938D848D981306C00288F3898F
:1006C000E02D80818F7D80830895EF92FF920F93BC
:1006D0001F93CF93DF93EC0181E0888F9B8D8C8DEE
:1006E00098131AC0E889F989808185FF15C09FB7E2
:1006F000F894EE89FF896083E889F98980818370A5
:10070000806480839FBF81E090E0DF91CF911F9153
:100710000F91FF90EF900895F62E0B8D10E00F5F74
:100720001F4F0F731127E02E8C8D8E110CC00FB64A
:1007300007FCFACFE889F989808185FFF5CFCE01E2
:100740000E944303F1CFEB8DEC0FFD2FF11DE35A17
:10075000FF4FF0829FB7F8940B8FEA89FB89808165
:100760008062CFCFCF93DF93EC01888D8823B9F0DF
:10077000AA89BB89E889F9898C9185FD03C08081AC
:1007800086FD0DC00FB607FCF7CF8C9185FFF2CF29
:10079000808185FFEDCFCE010E944303E9CFDF9139
:1007A000CF91089580E090E0892B29F00E943903D1
:1007B00081110E94000080E090E0892B49F080E0E8
:1007C00090E0892B29F00E94000081110E94000016
:1007D00080E090E0892B49F080E090E0892B29F0BF
:1007E0000E94000081110E94000080E090E0892BAF
:1007F00049F080E090E0892B29F00E9400008111EF
:100800000C9400000895AF92BF92CF92DF92EF92C6
:10081000FF920F931F93CF93DF936B017A01EC014B
:10082000C451DD4F28813CE0389F8001399F100D75
:100830001124A0902604B12C27FF1FC0FB011182B8
:10084000108288818F5F888388819801280F311DED
:1008500087FD3A95F6012A153B051CF488818C30FA
:10086000C4F180819181049680349C4908F473C05E
:10087000F60180819181049670C088819801280FCB
:10088000311D87FD3A952A153B05DCF68881A801C4
:10089000480F511D87FD5A95FA01EE0FFF1FE40F17
:1008A000F51FEA56FC4F808186FFCBCF8881F80187
:1008B000E80FF11D87FDFA95CF01EE0FFF1FE80F3E
:1008C000F91FEA56FC4F808160E08F730E94E801B7
:1008D000B8CF808191812881A801420F511D27FD49
:1008E0005A959A01FA01EE0FFF1FE20FF31FEA5625
:1008F000FC4F21813281820F931FF7019183808306
:1009000088819801280F311D87FD3A95F901EE0F76
:10091000FF1FE20FF31FEA56FC4F808186FF22C0C3
:100920008881080F111D87FD1A95F801EE0FFF1F32
:10093000E00FF11FEA56FC4F808161E08F73DF9179
:10094000CF911F910F91FF90EF90DF90CF90BF90CC
:10095000AF900C94E80180E49CE9F70191838083D7
:100960008FEF8883DF91CF911F910F91FF90EF90D0
:10097000DF90CF90BF90AF900895089590E080E011
:100980000895CF93DF93EC0160E08E810E94E8012F
:1009900061E08E810E94E80160E08E810E94E801A2
:1009A0008BE891E00197F1F7DF91CF910895CF9215
:1009B000DF92EF92FF920F931F93CF93DF936C011F
:1009C0007C0187E0E80EF11CD0E0C0E0062F10E0CB
:1009D000B8010C2E02C0759567950A94E2F7617014
:1009E000F70181917F010E94E8012196C430D10571
:1009F00079F7C601DF91CF911F910F91FF90EF9092
:100A0000DF90CF900C94C104CF92DF92EF92FF92CF
:100A10000F931F93CF93DF93EC01F62E642F8C81FD
:100A20000E94E8018D818F3F19F060E00E94E8018B
:100A30000F2D10E08F8584FF25C06E0187E0C80E62
:100A4000D11CF12CE12CB8010E2C02C075956795D4
:100A50000A94E2F76170F60181916F010E94E8014A
:100A6000FFEFEF1AFF0A88E0E816F10461F7CE0104
:100A7000DF91CF911F910F91FF90EF90DF90CF907A
:100A80000C94C104B80184E0759567958A95E1F7E7
:100A9000CE010E94D7046F2DCE01DF91CF911F911F
:100AA0000F91FF90EF90DF90CF900C94D70440E02F
:100AB000682F80E394E00C940405CF93DF936130BA
:100AC00029F090913F04986090933F046093430411
:100AD0001092440490E49093450480934604805C13
:100AE00080934704809134040E946401809135040E
:100AF0008F3F11F00E946401809136040E946401CE
:100B0000C0E3D4E09E012053344080913F0484FD33
:100B10000AC084E090E02196281739073CF48E81C2
:100B20000E946401EFCF88E090E0F5CF8BE39DE079
:100B30000197F1F760E0809134040E94E80160E0E1
:100B4000809136040E94E801809135048F3F19F0AE
:100B500060E00E94E80180913F0484FD39C063E0B9
:100B600080E394E00E94D704CBE4D6E4CE01019761
:100B7000F1F763E080E394E00E94D7042197F1F756
:100B800063E080E394E00E94D70483E592E001975C
:100B9000F1F762E080E394E00E94D70480913F0483
:100BA00080620E94570584E0809340048CE00E949C
:100BB000570581E00E9457058BE39FE10197F1F70C
:100BC00082E08093410486E0DF91CF910C94570539
:100BD00080620E9457058BE496E40197F1F78091BB
:100BE0003F0480620E94570583E592E00197F1F788
:100BF00080913F0480620E945705D0CF90914304BA
:100C0000891710F08FEF890FE82FF0E0E05DFB4FC0
:100C1000848980680C94570541E00E94040581E0B6
:100C200090E00895FB0101900020E9F73197AF01B2
:100C3000461B570BDC01ED91FC910280F381E02D06
:100C40001994BC0180E394E00C941206FC01248109
:100C50003581232B39F421E0FB018081882349F081
:100C600020E007C0808191810E94C70D21E0892B7F
:100C7000B9F7822F0895FC0180819181009711F0CE
:100C80000C94540C08950F931F93CF93DF93EC01B2
:100C900088819981009759F02A813B81261737076F
:100CA00030F081E0DF91CF911F910F9108958B017A
:100CB0006F5F7F4F0E94DD0C009759F09983888306
:100CC0001B830A832C813D81232B59F7FC01108261
:100CD000E8CF80E0E7CFEF92FF920F931F93CF937F
:100CE000DF93EC017B018A01BA010E94430628814F
:100CF0003981811114C02115310519F0C9010E94F3
:100D0000540C198218821D821C821B821A82CE0109
:100D1000DF91CF911F910F91FF90EF9008951D8368
:100D20000C83B701C9010E94D00DF1CF50E040E023
:100D300061E472E00C946B06FB0101900020E9F77E
:100D40003197AF01461B570B0C946B06CF93DF9383
:100D5000EC01FB018617970749F0608171816115ED
:100D6000710541F0448155810E946B06CE01DF91EF
:100D7000CF91089588819981009711F00E94540CB9
:100D8000198218821D821C821B821A82EFCF1F9249
:100D90000F920FB60F9211242F933F938F939F932F
:100DA000AF93BF938091F1029091F202A091F30270
:100DB000B091F4023091F00223E0230F2D3758F563
:100DC0000196A11DB11D2093F0028093F102909332
:100DD000F202A093F302B093F4028091F502909195
:100DE000F602A091F702B091F8020196A11DB11D83
:100DF0008093F5029093F602A093F702B093F80265
:100E0000BF91AF919F918F913F912F910F900FBE06
:100E10000F901F90189526E8230F0296A11DB11D73
:100E2000D2CF1F920F920FB60F9211240BB60F92D2
:100E30002F933F934F935F936F937F938F939F93E2
:100E4000AF93BF93EF93FF9389EF92E00E94430328
:100E5000FF91EF91BF91AF919F918F917F916F9192
:100E60005F914F913F912F910F900BBE0F900FBE4E
:100E70000F901F9018951F920F920FB60F9211248A
:100E80000BB60F922F938F939F93EF93FF93E09165
:100E90000903F0910A038081E0910F03F0911003A0
:100EA00082FD1DC09081809112038F5F8F7320910E
:100EB0001303821741F0E0911203F0E0E750FD4F79
:100EC000958F80931203FF91EF919F918F912F91B6
:100ED0000F900BBE0F900FBE0F901F901895808142
:100EE000F2CF1F920F920FB60F9211240BB60F92F2
:100EF0002F933F934F935F936F937F938F939F9322
:100F0000AF93BF93EF93FF9348E251E064E271E047
:100F100090E080E00E940304FF91EF91BF91AF91B8
:100F20009F918F917F916F915F914F913F912F9101
:100F30000F900BBE0F900FBE0F901F9018951F9231
:100F40000F920FB60F9211240BB60F922F933F936F
:100F50004F935F936F937F938F939F93AF93BF93C1
:100F6000EF93FF9348EA50E064EA70E083E090E09A
:100F70000E940304FF91EF91BF91AF919F918F91D8
:100F80007F916F915F914F913F912F910F900BBE89
:100F90000F900FBE0F901F9018951F920F920FB6D3
:100FA0000F9211240BB60F922F933F934F935F93A1
:100FB0006F937F938F939F93AF93BF93EF93FF9321
:100FC00048E950E064E970E082E090E00E940304A8
:100FD000FF91EF91BF91AF919F918F917F916F9111
:100FE0005F914F913F912F910F900BBE0F900FBECD
:100FF0000F901F9018951F920F920FB60F92112409
:101000000BB60F922F933F934F935F936F937F9302
:101010008F939F93AF93BF93EF93FF9348E850E074
:1010200064E870E081E090E00E940304FF91EF919A
:10103000BF91AF919F918F917F916F915F914F91F0
:101040003F912F910F900BBE0F900FBE0F901F90EE
:101050001895CF931092FC021092FB0288EE93E059
:10106000A0E0B0E08093FD029093FE02A093FF0207
:10107000B09300038AE092E09093FA028093F90221
:1010800085EC90E0909306038093050384EC90E058
:10109000909308038093070380EC90E090930A03F9
:1010A0008093090381EC90E090930C0380930B03F1
:1010B00082EC90E090930E0380930D0386EC90E019
:1010C0009093100380930F03109212031092130356
:1010D00010921403109215031092330410923204EC
:1010E0008CE192E090933104809330048DE0809302
:1010F0003404CFEFC09335048CE0809336048BE04A
:10110000809337048AE08093380489E0809339041F
:1011100088E080933A0410923B0410923C041092B1
:101120003D0410923E0410923F0461E080E10E9471
:101130005D0580912604803318F591E0980F909317
:10114000260480932D0490E0FC01EE0FFF1FE80FB2
:10115000F91FEA56FC4F88EB9BE092838183109243
:1011600028041092270410922A0410922904109245
:101170002C0410922B0487E294E0CF910C949606F5
:10118000C0932D04ECCFCF93DF93CDB7DEB7689734
:101190000FB6F894DEBF0FBECDBF789484B58260E1
:1011A00084BD84B5816084BD85B5826085BD85B50B
:1011B000816085BD80916E00816080936E00109289
:1011C0008100809181008260809381008091810004
:1011D0008160809381008091800081608093800095
:1011E0008091B10084608093B1008091B0008160F3
:1011F0008093B000809191008260809391008091F3
:101200009100816080939100809190008160809333
:1012100090008091A10082608093A1008091A10044
:1012200081608093A1008091A00081608093A000E4
:101230008091210182608093210180912101816050
:101240008093210180912001816080932001809111
:101250007A00846080937A0080917A008260809323
:101260007A0080917A00816080937A0080917A0080
:10127000806880937A001092C100E0910903F09198
:101280000A0382E08083E0910503F0910603108257
:10129000E0910703F09108038FEC80831092110313
:1012A000E0910D03F0910E0386E08083E0910B0343
:1012B000F0910C03808180618083E0910B03F091B9
:1012C0000C03808188608083E0910B03F0910C0314
:1012D000808180688083E0910B03F0910C03808112
:1012E0008F7D808384E00E94640182E00E9464011B
:1012F00080912D04803308F051C086E00E94640183
:1013000080912D04282F30E0F901EE0FFF1FE20F2E
:10131000F31FEA56FC4F9081907C96609083109268
:101320002E0410922F042CE0622F0E94A40B829FA7
:10133000B001112430E020E0AB01420F531FFA014D
:10134000EE0FFF1FE40FF51FEA56FC4F908196FD4C
:1013500017C02F5F3F4F2C30310571F7813009F0F6
:101360001BC11092800082E0809381001092850062
:1013700010928400B19A80916F00826080936F0018
:10138000E0912D048E2F90E0FC01EE0FFF1FE80F7F
:10139000F91FEA56FC4F80818064808364E272E02A
:1013A00089EF92E00E9412066FE372E089EF92E00B
:1013B0000E94120664E084E10E945D0580E00E94C4
:1013C000FE0582E492E00E94210681E00E94FE0573
:1013D00086E592E00E94210682E00E94FE058BE6EF
:1013E00092E00E94210683E00E94FE0585E792E0DC
:1013F0000E94210661E472E087E294E00E949C066C
:1014000089EF92E00E942D03181619060CF0F0C027
:101410008CE0E82EF12C89EF92E00E940B03898387
:101420001A8200912B0410912C040F5F1F4FB801FA
:1014300087E294E00E944306882399F020912704D4
:101440003091280480912B0490912C04BE016F5F91
:101450007F4F820F931F0E94D00D10932C04009396
:101460002B0481E0E81AF108B1F61E861D86188A61
:101470001F861A8A198ACE010D960E9496061C8A2A
:101480001B8A1E8A1D8A188E1F8ACE0143960E94CF
:10149000960666E872E087E294E00E9426066FE70F
:1014A00072E08111AEC068E872E087E294E00E94C9
:1014B0002606811109C065E972E087E294E00E9486
:1014C0002606882309F49BC067E274E0CE010D96DE
:1014D0000E94A60662EA72E0CE0143960E949C0634
:1014E0001A8219821C821B821E821D82BE01635FCA
:1014F0007F4FCE0101960E94A60618861F821A868B
:1015000019861C861B86BE016D5E7F4FCE01079635
:101510000E94A6066FE772E0CE0101960E942606A1
:10152000811125C066EA72E0CE0101960E9426066E
:10153000882309F469C090E080E00E94830182E082
:101540000E94FE0585EB92E00E94210683E00E9446
:10155000FE058BEC92E00E94210661E084E00E948F
:10156000E8010E94990260E084E00E94E801CE0157
:1015700007960E943B06CE0101960E943B060E9400
:101580009902CE0143960E943B06CE010D960E9421
:101590003B060E94D2032ECF823061F4109290005D
:1015A00080939100109295001092940088BB8093D4
:1015B0007100E6CE833069F41092A00082E080933F
:1015C000A1001092A5001092A40089BB8093720024
:1015D000D7CE8111D5CE1092200182E080932101D7
:1015E00010922501109224018ABB80937300C8CE0B
:1015F00066E872E087E294E00E949C0636CF66EAD5
:1016000072E0CE010D966ACF8AE590E00E948301D8
:1016100082E00E94FE058CED92E00E9421064D8141
:101620005E8169817A8180E394E00E94CF0286ED39
:1016300092E00E94210683E00E94FE0584EE92E083
:101640000E9421064B855C856F81788580E394E05C
:101650000E94CF0286ED92E00E94210661E082E0C6
:101660000E94E8010E94990260E082E00E94E80185
:1016700090E080E00E9483017ACF87E294E00C94AE
:101680003B06052E97FB1EF400940E94580B57FD55
:1016900007D00E94730B07FC03D04EF40C94580B38
:1016A00050954095309521953F4F4F4F5F4F08958E
:1016B00090958095709561957F4F8F4F9F4F0895BE
:1016C0000E94950BA59F900DB49F900DA49F800D37
:1016D000911D11240895B7FF0C94600B0E94600BBC
:1016E000821B930B0895A1E21A2EAA1BBB1BFD01BE
:1016F0000DC0AA1FBB1FEE1FFF1FA217B307E407F1
:10170000F50720F0A21BB30BE40BF50B661F771F48
:10171000881F991F1A9469F7609570958095909528
:101720009B01AC01BD01CF010895A29FB001B39F01
:10173000C001A39F700D811D1124911DB29F700DDA
:10174000811D1124911D0895991B79E004C0991FF2
:10175000961708F0961B881F7A95C9F7809508950B
:10176000EE0FFF1F881F8BBF0790F691E02D199495
:101770000F931F93CF93DF938230910510F482E093
:1017800090E0E0914A04F0914B0430E020E0B0E0BA
:10179000A0E0309799F42115310509F44AC0281BBF
:1017A000390B24303105D8F58A819B81611571058B
:1017B00089F1FB0193838283FE0111C04081518135
:1017C0000281138148175907E0F04817590799F427
:1017D000109761F012960C93129713961C93329601
:1017E000CF01DF91CF911F910F91089500934A048B
:1017F00010934B04F4CF2115310551F042175307D4
:1018000038F0A901DB019A01BD01DF01F801C1CF68
:10181000EF01F9CF90934B0480934A04CDCFFE01A2
:10182000E20FF31F8193919322503109398328836A
:10183000D7CF2091480430914904232B41F42091C3
:10184000020230910302309349042093480420910E
:101850000002309101022115310541F42DB73EB748
:101860004091040250910502241B350BE09148047D
:10187000F0914904E217F307A0F42E1B3F0B281741
:10188000390778F0AC014E5F5F4F2417350748F0F9
:101890004E0F5F1F509349044093480481939193E6
:1018A0009FCFF0E0E0E09CCFCF93DF930097E9F08B
:1018B000FC01329713821282A0914A04B0914B042A
:1018C000ED0130E020E01097A1F420813181820FFA
:1018D000931F20914804309149042817390709F0D3
:1018E00061C0F0934904E0934804DF91CF910895DB
:1018F000EA01CE17DF07E8F54A815B819E014115B9
:101900005105B1F7E901FB83EA8349915991C40F6D
:10191000D51FEC17FD0761F4808191810296840F39
:10192000951FE90199838883828193819B838A83B0
:10193000F0E0E0E012968D919C9113970097B9F535
:101940002D913C911197CD010296820F931F20910A
:101950004804309149042817390739F6309751F572
:1019600010924B0410924A04B0934904A093480487
:10197000BCCFD383C28340815181840F951FC81788
:10198000D90761F44E5F5F4F88819981480F591FD5
:10199000518340838A819B81938382832115310502
:1019A00009F0B0CFF0934B04E0934A049ECFFD01C1
:1019B000DC01C0CF13821282D7CF4F925F926F9219
:1019C0007F928F929F92AF92BF92CF92DF92EF92CF
:1019D000FF920F931F93CF93DF938C01009799F49D
:1019E000CB01DF91CF911F910F91FF90EF90DF908E
:1019F000CF90BF90AF909F908F907F906F905F90AF
:101A00004F900C94B80BFC01E60FF71F9C0122507D
:101A10003109E217F30708F4AEC0D901CD91DC918A
:101A20001197C617D70720F1C530D10578F0CE0140
:101A300004978617970750F0C61BD70B2297C193C0
:101A4000D1936D937C93CF010E94540CC801DF9118
:101A5000CF911F910F91FF90EF90DF90CF90BF90AB
:101A6000AF909F908F907F906F905F904F90089570
:101A70005B01AC1ABD0A4C018C0E9D1EA0914A045C
:101A8000B0914B04512C412CF12CE12C109731F5E5
:101A900080914804909149048815990509F05CC02B
:101AA0004616570608F058C0809100029091010236
:101AB000009741F48DB79EB7409104025091050202
:101AC000841B950BE817F90708F055C0F0934904FB
:101AD000E0934804F90171836083B8CF8D919C91A4
:101AE000119712966C90129713967C901397A815E5
:101AF000B90559F56C0142E0C40ED11CCA14DB04CF
:101B000020F1AC014A195B09DA011296159780F0B1
:101B10006282738251834083D9016D937C93E11477
:101B2000F10471F0D7011396FC93EE9312978ECFC8
:101B300022968C0F9D1FF90191838083F301EFCFD3
:101B4000F0934B04E0934A0481CF4816590608F4F9
:101B50002C017D01D3019ACFCB010E94B80B7C01EF
:101B6000009749F0AE01B8010E94BE0DC8010E9465
:101B7000540C87016BCF10E000E068CFFB01DC0163
:101B800002C001900D9241505040D8F70895FB01DA
:101B9000DC018D91019080190110D9F3990B089502
:101BA000FB01DC0101900D920020E1F7089511E0A6
:101BB000C0E3D1E000E006C0802FFE010E94B00B20
:101BC0002196011DC133D10780E00807A9F7F894D9
:021BD000FFCF45
:101BD20000004C048000000000006503CF02FC02FC
:101BE200B2032D030B031F03000000000C06CF02FB
:101BF200BE04BD04506C65617365207363616E2021
:101C0200796F757220524649442043617264000D17
:101C12000A00202054484520425249474854204C4B
:101C220049474854200020524649442042415345E6
:101C320044204C4F434B20535953002043415244BC
:101C42003A2020200020446174653A202020006E52
:101C52006F416374696F6E004532383036383934FB
:101C62003031413900453230303030313930363060
:101C720043006E6F77004163636573732044656E42
:101C820069656421004163636573732044656E690D
:101C920065642120202020202020002020202020D8
:101CA20020202020202020202020200020434152DC
:0C1CB200443A200020446174653A200090
:00000001FF
